{
  "_format": "hh-sol-artifact-1",
  "contractName": "ChipVault",
  "sourceName": "contracts/ChipVault.sol",
  "abi": [
    {
      "inputs": [],
      "stateMutability": "nonpayable",
      "type": "constructor"
    },
    {
      "anonymous": false,
      "inputs": [
        {
          "indexed": true,
          "internalType": "address",
          "name": "buyer",
          "type": "address"
        },
        {
          "indexed": false,
          "internalType": "uint256",
          "name": "amountPaid",
          "type": "uint256"
        }
      ],
      "name": "ChipsPurchased",
      "type": "event"
    },
    {
      "inputs": [],
      "name": "buyChips",
      "outputs": [],
      "stateMutability": "payable",
      "type": "function"
    },
    {
      "inputs": [],
      "name": "minimumPurchase",
      "outputs": [
        {
          "internalType": "uint256",
          "name": "",
          "type": "uint256"
        }
      ],
      "stateMutability": "view",
      "type": "function"
    },
    {
      "inputs": [],
      "name": "owner",
      "outputs": [
        {
          "internalType": "address",
          "name": "",
          "type": "address"
        }
      ],
      "stateMutability": "view",
      "type": "function"
    },
    {
      "inputs": [],
      "name": "withdrawProfits",
      "outputs": [],
      "stateMutability": "nonpayable",
      "type": "function"
    }
  ],
  "bytecode": "0x608060405266038d7ea4c6800060015534801561001b57600080fd5b50336000806101000a81548173ffffffffffffffffffffffffffffffffffffffff021916908373ffffffffffffffffffffffffffffffffffffffff16021790555061046c8061006b6000396000f3fe60806040526004361061003f5760003560e01c806339913e09146100445780638da5cb5b1461005b5780639c3930ad14610086578063aa2de6c314610090575b600080fd5b34801561005057600080fd5b506100596100bb565b005b34801561006757600080fd5b506100706101b2565b60405161007d91906102b2565b60405180910390f35b61008e6101d6565b005b34801561009c57600080fd5b506100a561026b565b6040516100b291906102e6565b60405180910390f35b60008054906101000a900473ffffffffffffffffffffffffffffffffffffffff1673ffffffffffffffffffffffffffffffffffffffff163373ffffffffffffffffffffffffffffffffffffffff1614610149576040517f08c379a000000000000000000000000000000000000000000000000000000000815260040161014090610384565b60405180910390fd5b60008054906101000a900473ffffffffffffffffffffffffffffffffffffffff1673ffffffffffffffffffffffffffffffffffffffff166108fc479081150290604051600060405180830381858888f193505050501580156101af573d6000803e3d6000fd5b50565b60008054906101000a900473ffffffffffffffffffffffffffffffffffffffff1681565b60015434101561021b576040517f08c379a000000000000000000000000000000000000000000000000000000000815260040161021290610416565b60405180910390fd5b3373ffffffffffffffffffffffffffffffffffffffff167f85637b17e1b2f58ee0bd3b882c032092a3b8453f44026dc397be30023bf786963460405161026191906102e6565b60405180910390a2565b60015481565b600073ffffffffffffffffffffffffffffffffffffffff82169050919050565b600061029c82610271565b9050919050565b6102ac81610291565b82525050565b60006020820190506102c760008301846102a3565b92915050565b6000819050919050565b6102e0816102cd565b82525050565b60006020820190506102fb60008301846102d7565b92915050565b600082825260208201905092915050565b7f4f6e6c792074686520617263616465206f776e65722063616e2077697468647260008201527f61772070726f6669747300000000000000000000000000000000000000000000602082015250565b600061036e602a83610301565b915061037982610312565b604082019050919050565b6000602082019050818103600083015261039d81610361565b9050919050565b7f496e73756666696369656e74204554482073656e7420746f206275792063686960008201527f7073000000000000000000000000000000000000000000000000000000000000602082015250565b6000610400602283610301565b915061040b826103a4565b604082019050919050565b6000602082019050818103600083015261042f816103f3565b905091905056fea264697066735822122078aac50898178e729428435925b044dd570d2b73aa4211d313118e17571bd23e64736f6c63430008130033",
  "linkReferences": {},
  "deployedLinkReferences": {}
}